:1000000071C000008EC000008CC000008AC00000DB
:1000100088C0000086C0000084C0000082C00000CC
:1000200080C000007EC000007CC000007AC00000DC
:1000300078C0000076C0000074C0000072C00000EC
:1000400070C000006EC000006CC000006AC00000FC
:10005000CAC2000066C0000064C0000062C00000A8
:1000600060C000002AC400005CC000005AC000004C
:1000700058C0000056C0000054C0000052C000002C
:1000800050C000004EC000004CC000004AC000003C
:1000900048C0000046C0000044C0000042C000004C
:1000A00040C000003EC000003CC000003AC000005C
:1000B00038C0000036C0000034C0000032C000006C
:1000C00030C000002EC000002CC000002AC000007C
:1000D00028C0000026C0000024C0000022C000008C
:1000E00020C0000011241FBECFEFD1E2DEBFCDBF84
:1000F00000E00CBF12E0A0E0B2E0E2EEFEE000E0C3
:100100000BBF02C007900D92AE32B107D9F723E0C2
:10011000AEE2B2E001C01D92AD3CB207E1F727D2DA
:10012000DEC66ECF80E480937C0087E880937A00FF
:1001300008950F931F93CF93DF93CDB7DEB76497E6
:100140000FB6F894DEBF0FBECDBF809100028823AA
:10015000B1F0813009F051C080912E02873038F41F
:10016000ECE7F0E09081987F8770892B8083EAE745
:10017000F0E08081806480831092000241C0809111
:100180007A0086FD3DC080912E022091780030914A
:100190007900E82FF0E0EE0FFF1FE15DFD4F3183A6
:1001A000208381111CC0EFE2F2E081818F93808176
:1001B0008F9381E092E09F938F938E010F5F1F4F8B
:1001C0001F930F93B1D3A80161E070E081E090E04C
:1001D000B5D10F900F900F900F900F900F908091CE
:1001E0002E028F5F883018F480932E0202C0109286
:1001F0002E0281E08093000203C081E08093000220
:1002000064960FB6F894DEBF0FBECDBFDF91CF91DD
:100210001F910F9108951092530210925202089567
:100220004091510290E028E0240F02C0880F991FEE
:100230002A95E2F7209152023091530282279327A8
:1002400099235CF4220F331F81E2282780E13827AD
:10025000309353022093520206C0220F331F309373
:100260005302209352024F5F483020F440935102D2
:1002700081E008951092510282E00895CF93DF93B8
:10028000C0914F02D0915002C617D70770F4FC01FD
:10029000EC0FFD1F8081C4DF8230A1F42196D09342
:1002A0005002C0934F0281E00EC010925002109293
:1002B0004F028091520290915302FA019183808300
:1002C00082E001C081E0DF91CF91089580915602D4
:1002D000813051F120F0823009F44BC069C0809127
:1002E000540290915502892B39F478D1909355029C
:1002F0008093540281E0089571D12091540230918D
:100300005502821B930B8038924008F453C0E2E000
:10031000F1E0808180648083109255021092540233
:1003200081E0809356020895809154029091550285
:10033000892B39F453D1909355028093540281E074
:1003400008954CD12091540230915502821B930B99
:100350008038924088F1E2E0F1E080818F7B8083F9
:10036000109255021092540282E08093560281E06E
:1003700008958091540290915502892B39F42ED121
:10038000909355028093540281E0089527D12091E3
:10039000540230915502821B930B8038924070F0CA
:1003A00010925502109254021092560282E0089563
:1003B00081E0089581E0089581E0089581E0089545
:1003C000CF93C62FE2E0F1E0908180FB95F9908316
:1003D00083EF91E00197F1F700C0000064FB8827EC
:1003E00080F980FDA59A80FFA59865FB882780F994
:1003F00080FD739A80FF739866FB992790F980813E
:1004000090FB83F98083962F991F9927991F8081EC
:1004100090FB84F980835ADF8230E9F7C295C07F70
:10042000C4FB882780F980FDA59A80FFA598C5FBAD
:10043000882780F980FD739A80FF7398C6FB9927FF
:1004400090F9E2E0F1E0808190FB83F98083CC1F9A
:10045000CC27CC1F8081C0FB84F9808337DF8230BA
:10046000E9F7CF910895682F80E0AACF08959D9A6B
:10047000A5986B9A7398A1E0B1E08C9188608C93F9
:10048000E2E0F1E08081877F80838C9180618C93B2
:1004900080818F7E80838C9180648C9380818F7D1E
:1004A00080838C9180628C9380818F7D808387EAAA
:1004B00091E60197F1F700C00000A59A739A06DF54
:1004C0008230E9F703DF8230E9F700DF8230E9F7B5
:1004D00089EF90E00197F1F700C00000A598739AAA
:1004E000F5DE8230E9F7F2DE8230E9F7EFDE8230C6
:1004F000E9F789EF90E00197F1F700C0000088E28A
:10050000B2DF8CE0B0DF86E0AEDF81E0ACDF87EA0F
:1005100091E60197F1F700C000000895CF93DF93B3
:10052000FC016081662339F0EC01219681E048DF0F
:1005300069916111FBCFDF91CF910895CF93DF9344
:10054000EA01E2E0F1E090819F7D9083813019F033
:10055000823029F007C0615880E032DF03C0615467
:1005600080E02EDFCE01DADFDF91CF91089525D034
:10057000B6D0EED07894D6DD7ADF4BE052E061E081
:1005800081E0DCDF45E152E060E082E0D7DF2FEF81
:1005900083ED90E3215080409040E1F700C00000DF
:1005A0008DE192E0B5D08230D9F784E292E0B0D00C
:1005B0008230D9F7D3D0BDDDFDCFE1E8F0E0808116
:1005C0008160808380E891EC909385008093840023
:1005D000EFE6F0E08081816080830895809184005F
:1005E0009091850008951F920F920FB60F921124DB
:1005F0002F933F934F935F936F937F938F939F932B
:10060000AF93209157023091580240915902509176
:100610005A0260915B0270915C0280915D02909140
:100620005E02A1E075D120935702309358024093A7
:10063000590250935A0260935B0270935C0280935C
:100640005D0290935E0280E891EC90938500809328
:100650008400AF919F918F917F916F915F914F91A6
:100660003F912F910F900FBE0F901F901895FC0196
:10067000F395208131812F5F3F4F332732964081A0
:1006800051812417350759F0329740815181DC019F
:10069000A40FB51F6C933183208381E0089582E01D
:1006A0000895FC01EE5FFE4F408151813297208119
:1006B00031814217530789F0329620813181DC0164
:1006C000A20FB31F8C91DB018C93808191810196E5
:1006D00099279183808381E0089580E008951092A6
:1006E000C50087E68093C40088E18093C10086E05E
:1006F0008093C200E0ECF0E080818F7D80830895DC
:10070000E0ECF0E0908195FFFDCF8093C600089566
:100710002091C00025FF1AC02091C7023091C80265
:10072000FC01E20FF31F8081882351F02F5F3F4FC0
:100730003093C8022093C7028093C60081E00895D9
:100740001092C8021092C70282E0089580E00895D6
:10075000E1ECF0E080818068808308951F93CF935F
:10076000DF9300D0CDB7DEB719821B821A82809149
:10077000C602813009F452C020F0823009F47EC0F4
:1007800093C0BE016F5F7F4F89EC92E08ADF8130BA
:1007900009F08CC089818C37B9F0873C19F0873714
:1007A00031F509C081E08093C50287EC8093610236
:1007B000109260027BC08091C502882309F476C044
:1007C00081E08093600272C0E091C502EE2309F4DB
:1007D0006DC081E08E0F8093C502F0E0EF59FD4FB0
:1007E0008CE7808318DD81E08093C6025FC0E091D2
:1007F000C502EE2309F45AC090916002913021F4B1
:10080000909360028058898381E08E0F8093C502A7
:10081000F0E0EF59FD4F8981808348C06091C502A7
:1008200070E064507109AE014E5F5F4F82E692E066
:1008300025DD8230D9F58091C50290E08F599D4F1A
:10084000FC013397208130E0322F222731968081BE
:10085000A901482BCA012A813B818217930721F401
:1008600082E08093C60222C01092C5021092C60296
:1008700089E292E04DDF8230D9F718C0E0915F0243
:1008800011E01E0F10935F02F0E0EF59FD4F8081E1
:1008900037DF8091C502181309C010925F021092D1
:1008A000C5021092C60202C01092C6020F900F90AD
:1008B0000F90DF91CF911F9108951F920F920FB665
:1008C0000F9211240BB60F922F933F934F935F9388
:1008D0006F937F938F939F93AF93BF93EF93FF9308
:1008E0006091C60089EC92E0C2DEFF91EF91BF916A
:1008F000AF919F918F917F916F915F914F913F91B8
:100900002F910F900BBE0F900FBE0F901F90189558
:100910000024A7FD00942A0F301D401D501D601DAE
:10092000701D801D901D08950F931F93CF93DF932B
:10093000CDB7DEB72E970FB6F894DEBF0FBECDBF92
:100940000E891F8986E08C831A8309838FEF9FE7C6
:100950009E838D83AE01465E5F4F688D798DCE019B
:10096000019610D0EF81F885E00FF11F10822E96CE
:100970000FB6F894DEBF0FBECDBFDF91CF911F91B0
:100980000F9108952F923F924F925F926F927F92B4
:100990008F929F92AF92BF92CF92DF92EF92FF928F
:1009A0000F931F93CF93DF93CDB7DEB72B970FB67F
:1009B000F894DEBF0FBECDBF6C017B018A01FC0144
:1009C00017821682838181FFBFC1CE0101963C014F
:1009D000F6019381F70193FD859193FF81917F014A
:1009E000882309F4ADC1853239F493FD859193FFD5
:1009F00081917F01853221F4B60190E0D6D1E8CF14
:100A0000912C212C312CFFE1F315D8F08B3279F0A9
:100A100038F4803279F08332A1F4232D20611DC097
:100A20008D3261F0803369F4232D216016C0832D4F
:100A30008260382EE32DE4603E2E2AC0F32DF8604C
:100A40001DC037FC2DC020ED280F2A3040F08E321B
:100A5000B9F436FC75C1232D2064322E19C036FE40
:100A600006C08AE0989E200D1124922E11C0EAE063
:100A70002E9E200D1124222EF32DF0623F2E08C051
:100A80008C3621F4832D8068382E02C0883641F4DC
:100A9000F70193FD859193FF81917F018111B3CF80
:100AA000982F9F7D9554933028F40C5F1F4F9FE340
:100AB00099830DC0833631F0833771F0833509F0A7
:100AC00055C020C0F801808189830E5F1F4F8824A4
:100AD0008394912C530112C02801F2E04F0E511C57
:100AE000F801A080B18036FE03C0692D70E002C01D
:100AF0006FEF7FEFC5014ED14C018201F32DFF77DF
:100B00003F2E15C0280122E0420E511CF801A080A2
:100B1000B18036FE03C0692D70E002C06FEF7FEF39
:100B2000C5012DD14C01F32DF0683F2E820133FC1D
:100B300019C0822D90E088169906A0F4B60180E2D3
:100B400090E033D12A94F5CFF50137FC859137FE3B
:100B500081915F01B60190E028D121102A9421E013
:100B6000821A91088114910479F7E1C0843611F05A
:100B7000893639F5F80137FE07C0608171818281BD
:100B800093810C5F1F4F08C060817181072E000C9C
:100B9000880B990B0E5F1F4FF32DFF763F2E97FFAB
:100BA00009C090958095709561957F4F8F4F9F4FAD
:100BB000F0683F2E2AE030E0A30133D1882E86185A
:100BC00044C0853731F4232D2F7EB22E2AE030E049
:100BD00025C0932D997FB92E8F36C1F018F4883532
:100BE00079F0AEC0803719F0883721F0A9C0E92F1D
:100BF000E061BE2EB4FE0DC0FB2DF460BF2E09C017
:100C000034FE0AC0292F2660B22E06C028E030E04C
:100C100005C020E130E002C020E132E0F801B7FE7B
:100C200007C060817181828193810C5F1F4F06C074
:100C30006081718180E090E00E5F1F4FA301F1D0D1
:100C4000882E8618FB2DFF773F2E36FE0DC0232DF4
:100C50002E7FA22E891458F434FE0BC032FC09C03A
:100C6000832D8E7EA82E05C0B82CA32C03C0B82CD3
:100C700001C0B92CA4FE0FC0FE01E80DF11D80815A
:100C8000803321F49A2D997EA92E09C0A2FE06C0B8
:100C9000B394B39404C08A2D867809F0B394A3FC6E
:100CA00010C0A0FE06C0B21480F4280C922C9B1831
:100CB0000DC0B21458F4B60180E290E076D0B3943F
:100CC000F8CFB21418F42B1802C0982C212CA4FED3
:100CD0000FC0B60180E390E068D0A2FE16C0A1FC70
:100CE00003C088E790E002C088E590E0B6010CC040
:100CF0008A2D867851F0A1FE02C08BE201C080E20D
:100D0000A7FC8DE2B60190E050D0891430F4B60112
:100D100080E390E04AD09A94F8CF8A94F301E80DEA
:100D2000F11D8081B60190E040D08110F6CF2220E5
:100D300009F44ECEB60180E290E037D02A94F7CF86
:100D4000F6018681978102C08FEF9FEF2B960FB639
:100D5000F894DEBF0FBECDBFDF91CF911F910F91F1
:100D6000FF90EF90DF90CF90BF90AF909F908F90CB
:100D70007F906F905F904F903F902F900895FC016F
:100D80000590615070400110D8F7809590958E0FB6
:100D90009F1F0895FC016150704001900110D8F729
:100DA000809590958E0F9F1F08950F931F93CF935B
:100DB000DF93FB01238121FD03C08FEF9FEF2CC048
:100DC00022FF16C04681578124813581421753077F
:100DD00044F4A081B1819D012F5F3F4F3183208377
:100DE0008C93268137812F5F3F4F3783268314C032
:100DF0008B01EC01FB010084F185E02D1995892B15
:100E0000E1F6D80116968D919C9117970196179649
:100E10009C938E931697CE01DF91CF911F910F91E6
:100E20000895FA01AA27283051F1203181F1E89480
:100E30006F936E7F6E5F7F4F8F4F9F4FAF4FB1E0CD
:100E40003ED0B4E03CD0670F781F891F9A1FA11DC8
:100E5000680F791F8A1F911DA11D6A0F711D811DC9
:100E6000911DA11D20D009F468943F912AE0269F8E
:100E700011243019305D3193DEF6CF010895462FED
:100E80004770405D4193B3E00FD0C9F7F6CF462FCE
:100E90004F70405D4A3318F0495D31FD4052419337
:100EA00002D0A9F7EACFB4E0A695979587957795F4
:100EB0006795BA95C9F700976105710508959B017B
:100EC000AC010A2E06945795479537952795BA9504
:100ED000C9F7620F731F841F951FA01D0895F89412
:020EE000FFCF42
:100EE2000141444330202025346400544553544585
:100EF200206C636400424F4D2044494100546573A5
:0E0F020074650A006F6C610A004352430A00D6
:00000001FF
